:020000041000EA
:1000000000B5324B212058609868022188439860DF
:10001000D860186158612E4B002199600221596106
:100020000121F02299502B49196001219960352056
:1000300000F044F80222904214D00621196600F024
:1000400034F8196E01211966002018661A6600F04E
:100050002CF8196E196E196E052000F02FF8012189
:100060000842F9D1002199601B49196000215960AB
:100070001A491B48016001219960EB211966A021F2
:10008000196600F012F800219960164914480160C1
:100090000121996001BC002800D000471248134993
:1000A000086003C880F30888084703B5996A0420EC
:1000B0000142FBD001200142F8D103BD02B5186610
:1000C0001866FFF7F2FF186E186E02BD00000240BE
:1000D000000000180000070000035F00212200005C
:1000E000F4000018222000A00001001008ED00E03C
:1000F00000000000000000000000000074B24E7A12
:1001000000200420F7010010C3010010C5010010F9
:10011000C1010010C1010010C1010010C101001097
:10012000C1010010C1010010C1010010C701001081
:10013000C1010010C1010010C9010010CB01001065
:10014000CD010010CD010010CD010010CD01001037
:10015000CD010010CD010010CD010010CD01001027
:10016000CD010010CD010010CD010010CD01001017
:10017000CD010010CD010010CD010010CD01001007
:10018000CD010010CD010010CD010010CD010010F7
:10019000CD010010CD010010CD010010CD010010E7
:1001A000CD010010CD010010CD010010CD010010D7
:1001B000CD010010CD010010CD010010CD010010C7
:1001C00000BE00BE00BE00BE00BE00BEEFF3058054
:1001D000103800BEF2EB8871B06A0010D86A0010C7
:1001E0003402001090A31AE700201F49086006C8D7
:1001F00081F3088810471D48006800282FD10DA4FE
:100200000ECC002902D000F012F8F9E71849194A7B
:10021000002000E001C19142FCD1174988471749ED
:1002200088471749884700BEFDE701C901C29A42C5
:10023000FBD37047D86A0010C0000020C40A002019
:10024000DC7400100000042000000420DC740010A6
:10025000001004200010042000000000704709482E
:1002600003F00EF90047000008ED00E0000000D0A8
:10027000C80A0020E00E0020411D0010B505001046
:10028000691E00105756000006005250ABB3605371
:10029000E467001006005250861C0302F467001049
:1002A000060052505422A29D0068001005005250D2
:1002B000DE65F468DC740010F8B5C0460448054BF0
:1002C00010B5834203D0044B002B00D0984710BDDB
:1002D000C40A0020C40A00200000000006480749A4
:1002E000091A8B10C90FC91810B5491003D0044B57
:1002F000002B00D0984710BDC40A0020C40A00207B
:100300000000000010B5074C2378002B09D1FFF73F
:10031000D5FF054B002B02D0044800E000BF0123AD
:10032000237010BDC80C00200000000018560010FB
:10033000054B10B5002B03D00449054800E000BF71
:10034000FFF7CCFF10BDC04600000000CC0C002021
:1003500018560010F0B5DE46454657464E46040096
:10036000E0B58E4B89B005AA23CB23C2200004F050
:10037000ABFB8B4803F074FE03AD002632007F23F5
:1003800000212000009604F0A7FB200004F078FC78
:10039000192000F05DFE0136200004F095FB1F2EB1
:1003A000ECD101239A461E33B14600279B46260016
:1003B0005B46DC1B1F239846B844434622000021BD
:1003C000300000937F2304F087FB7F234246002107
:1003D0003000009404F080FB300004F051FC192040
:1003E00000F036FE300004F06FFB202F00D1BFE09C
:1003F0005346FF18DCD508AB340098464E4605AF8F
:1004000008CF1822082120000093022304F0FCFBEF
:10041000200004F035FCC820800000F019FE200008
:1004200004F052FB4745EBD132007F23002120002E
:10043000009604F051FB200004F022FC192000F08B
:1004400007FE0136200004F03FFB3F2EECD11022C6
:10045000544B554F984694463B0063449A460023BC
:10046000994643461B782026002B7DD07E2E00D94E
:1004700083E0721CD2B22E70012B59D07F2A7ED01D
:10048000B11CC9B26A70022B70D07F2979D0F21CDE
:10049000D2B2A970032B4BD07F2A74D0311DC9B2C0
:1004A000EA70042B62D07F296FD0721DD2B22971FD
:1004B000052B3DD07F2A6AD0B11DC9B26A71062BC7
:1004C00054D07F2965D0F21DD2B2A971072B2FD04D
:1004D0007F2A60D00836F6B2EA71082B29D00823AB
:1004E0004A46EA5401953B681822082120000093EF
:1004F000022304F05BFB200004F0C2FBC820800054
:1005000000F0A6FD200004F0DFFA01239C4604372A
:10051000E0445745A5D12000244A254904F0A8FB12
:10052000200004F0ADFBFA20C00000F091FD24E7AC
:1005300016004A46EA5401953B681822082120001B
:100540000093022304F032FB200004F099FBC82042
:10055000800000F07DFD200004F0B6FA7E2ED4D895
:1005600043461B78002B81D10023E2E70E00E0E731
:1005700001235B421F279A461AE70023B0E70123B5
:10058000AEE70223ACE70323AAE70423A8E7052389
:10059000A6E70623A4E70723A2E7C0463C560010BF
:1005A000305600100C6500109801002082040000F5
:1005B0008860001070B5FA25ED0088B0280000F0C2
:1005C00047FD03F0FBFD2749274803F0E3FE012127
:1005D000042000F051F80521052000F04DF801211C
:1005E000022000F049F80121032000F045F8D02353
:1005F00020221B065A62802292035A6280225203F2
:100600005A62802292025A628022184C184ED202FC
:100610005A622100300003F0BBFF0321082000F0E4
:100620002BF80321092000F027F82100114803F0DE
:10063000AFFF0321132000F01FF80321122000F068
:100640001BF8012303AC2372402280217933200060
:10065000009604F093F9280000F0FAFC2000FFF760
:1006600079FEC04640420F0000C00340801A0600D9
:100670005802002060020020094A8300944640226C
:10068000634410B51C68C0006240C024144080223E
:10069000520113431C60034B9C466044416010BDF3
:1006A00004C0014000400140024B18688007C00FA1
:1006B0007047C04600C0064070B5EFF3108C72B6AC
:1006C0000D4D2B68002BFCD0BFF35F8F0724CB08A8
:1006D000C618C05C01230C40A3401C000440034228
:1006E00007D103433370BFF35F8F2C608CF3108806
:1006F00070BD100001F0BCFB2C0100D00021044BA8
:10070000044ABFF35F8F02C39342FAD17047C046D9
:10071000000100D0800100D0044A1078431CDBB2F5
:10072000172B00D9102313707047C046A801002072
:1007300001238340002904D0034A1360034A136055
:100740007047034A1360FBE780E200E000E100E04D
:1007500080E100E0024B10309B688000C058704779
:1007600000ED00E070B50D00EFF3108672B60F4A91
:100770001368002BFCD0BFF35F8F0D4B10309B68CC
:1007800084001B590B4A934203D09D4201D001F0D3
:1007900087FB074B9B681D51BFF35F8FBFF35F8FD4
:1007A0000022024B1A6086F3108870BD240100D02D
:1007B00000ED00E0CD010010F0B5DE4657464E4694
:1007C0004546E0B50C0083B0EFF3108972B6584A85
:1007D0001368002BFCD0BFF35F8F564B9A68030061
:1007E00010339F00D559544A9046954232D0A542C5
:1007F00043D0524EAA1B2F2A2CD801228240924667
:1008000051464F4A12681140019151464D4A1160BC
:10081000BFF35F8FEFF305829346002A33D10123A4
:100820002A009A4393689C4208D177E04B005B18FA
:100830009B00F3189968A1422AD01A00062151564C
:100840000029F3DA019B002B19D052463E4B1A6067
:100850003B4B1A60374B9B68DD51BFF35F8FBFF393
:100860005F8F0022324B1A6089F3108803B0F0BC0E
:10087000BB46B246A946A046F0BD1500EAE752467F
:10088000304B1A60E6E79342C9D001F009FBC6E796
:1008900006215956002921DB4A00501880003418DF
:1008A0008046A0689860E079D8710620205698713B
:1008B000002824DBA488F01A640524154444001998
:1008C000E0240005400D24022043988052181F4B5D
:1008D0009200B6181A781970B271B3E75946002918
:1008E0000FD1FF3191711A49918018490A789A7194
:1008F000184A9B1B5B415A43120D0A70A2E7164827
:10090000E3E7164A1649D21A083A5002400D01434D
:100910009980144952080A43DA8093E70621515618
:1009200013000029B8DA5A46002AEAD14546DCE726
:10093000240100D000ED00E0CD010010AC0100204A
:1009400000E100E080E100E080E200E0DD0E002058
:1009500001BDFFFFAAAA000001BD0000E6010020C2
:1009600000F0FFFF00F8FFFF70B5EFF305810124F1
:100970000443EFF3108C72B6214A1368002BFCD0AD
:10098000BFF35F8F1F4B05001F4AED1A6D416A438D
:10099000120D1E4D8900AE6852B27658A6421CD088
:1009A0000621595691421CD012215956914222D00B
:1009B0001E215956914220D02A2159560324914292
:1009C00010D0134B19781A708171BFF35F8F00221A
:1009D0000B4B1A608CF3108870BDAB680D4C5C50EB
:1009E000EFE700246100091989005B18FF21997164
:1009F00009499980E5E70124F4E70224F2E7C046BB
:100A0000240100D0AC010020AAAA000000ED00E003
:100A1000DD0E0020CD01001001BDFFFF054B064A91
:100A20001360064A136053609360D360136153618F
:100A3000936170478080808000E400E004E400E07F
:100A4000024B9C46614489000160704740000034BD
:100A500010B50400FFF760FE01002000FFF7F0FF73
:100A6000FF232371BFF35F8F10BDC04610B5040094
:100A7000FFF752FE01002000FFF7E2FFFF23A380F3
:100A8000BFF35F8F10BDC04683680B4810B5844626
:100A900061446244090112019A18591854684B685C
:100AA00001209C4201D802D00020C0B210BD1268C3
:100AB0000B689A42F9D8F7E7FFFFFF0F0A4B196856
:100AC000EFF3108072B60A68002AFCD0BFF35F8F84
:100AD0001B68BFF35F8F00221A6080F3108840BF4D
:100AE000002000217047C046C00E0020F8B55746D0
:100AF0004E464546DE46E0B599460CAB1C780DAB3C
:100B00001B78060090469A460768002C11D1BC7BE2
:100B1000002C42D065003B682D19033D59194B78D4
:100B2000BB73002B00D1FB7300238B704B700B70D9
:100B300004E065003B682D19033D5919B2682A4B42
:100B400094464246E3181B0163441A604A465A60C1
:100B50000A9A9A600B9ADA6000238B704B700B70C4
:100B60007B7B9B46002B2BD022005946B8687B68C4
:100B700098473A68002816D05B4658465B005B44AD
:100B80005519033BA870D118D35C002B00D06B70B3
:100B90005B460C707B73A34513D0F0BCBB46B246DA
:100BA000A946A046F8BD5B465B005B44033BD318F7
:100BB0009C705119525D002A00D05A705B460B7030
:100BC0007C7342464B46307D00F0BAFB051E06D0D2
:100BD0005346002B03D12100306800F0D5FD0E9B59
:100BE000002BDAD01D70D8E7FFFFFF0FF0B5DE460F
:100BF00057464E4645460023E0B58BB00893674BF9
:100C00008200D45800239B46099000F00FFB6268D5
:100C100006000F00EFF3108572B61368002BFCD0AE
:100C2000BFF35F8F23689C465B7B9946002B00D106
:100C300069E0A2685A4B90464B441B0198444346D6
:100C40001A685B6810001900801BB941002900DC9C
:100C500063E0099800F074FB00230022984600230B
:100C60000692079300239A466368BFF35F8F5A4644
:100C70001A6085F310885346002B08D10028C4D190
:100C80000BB0F0BCBB46B246A946A046F0BD089BDF
:100C9000414618024B461843D047626806000F00D1
:100CA000EFF3108572B61368002BFCD0BFF35F8F93
:100CB000002F50DB33003B4302D02369002B61D16E
:100CC0002368D97B002907D04A00521819688C463E
:100CD00049466244033A51709A7B002A01D14A4640
:100CE0009A734A46DA734B46E168013BCA5C0132AB
:100CF000CA545B4623616368BFF35F8F5A461A602C
:100D000085F3108881E7002300229846002306928D
:100D10000793002300209A46A6E7002902D1002865
:100D200000D096E70021604600F0ACFC43461A680C
:100D30005B680692079343469B689A464346DB6886
:100D40009846E3684B44013B1B7808931B0203431E
:100D50002361002088E72369002BB1D0069A079B06
:100D6000921BBB41002B15DB5946049101210391D5
:100D70004946029141460191514620000091FFF7FA
:100D8000B5FEB6E700F052FA32003B0012184B41B4
:100D9000002BE9DA0122034B5242E5E7AC0D0020BB
:100DA000FFFFFF0FFFFFFF7F10B5144C6368002BA0
:100DB00004D00A211248FFF743FE10BD2300114A58
:100DC0001021206800F078FB032000F023FA0320B4
:100DD00000F020FB03200C4900F06CFAFFF79CFCAC
:100DE0000A4B9C4603232375D0231B061B686044D3
:100DF0006375074B80006060DC60DAE7F401002077
:100E0000C00E0020890A0010ED0B001040000034D5
:100E1000AC0D0020F0B54E464546DE465746E0B5DF
:100E200085B0019310AB1B7806000393002399460D
:100E3000984600927268EFF3108B72B61368002B1D
:100E4000FCD0BFF35F8F3568AC7B002C3DD06700D2
:100E50002B683F19033FDB195A78AA73002A00D187
:100E6000EA73B168474A8C4600980199A2181201AA
:100E70006244106051600E9991600F99D1604246B2
:100E80009A705A701A706B7B9A46002B67D02200BA
:100E90001900A8686B6898472A68002852D0534602
:100EA00050465B005344D719033BB870D118D35C4C
:100EB000002B00D07B7053460C706B7354454FD0A1
:100EC000F3681B19013B187800E000207368BFF33A
:100ED0005F8F42461A608BF31088002C4FD04B4630
:100EE000002B08D10002204305B0F0BCBB46B2463F
:100EF000A946A046F0BD039B002B3ED00E9B0020D0
:100F00000F999847030004000D000B4335D00029CA
:100F10000ADA009A019B121BAB4100920193002B4D
:100F20000ADB039B994685E700F080F924184D41C0
:100F300000940195002DF4DA0123134C5B420093D9
:100F40000194EEE753465B005344033BD3189C7077
:100F5000D119D25D002A00D05A7053460B706C73C1
:100F6000307D009A019B00F0EBF981460028A7D064
:100F70002100306800F008FCA2E70020B4E701205F
:100F80004042B1E7FFFFFF0FFFFFFF7FF0B5040016
:100F90000D0006267642F717C64636196F4100B592
:100FA00084B08F4214D811D000F040F932003B00D9
:100FB000121A8B41002B15DC002B3ED0200029009B
:100FC00000F068F904B080BCB846F0BD8642EBD9A9
:100FD0000026002700F02AF932003B00121A8B414C
:100FE000002BE9DD002302930193154B320000939F
:100FF00014483B00FFF70EFF0028DFDB0023984674
:10100000BC46114A114F7B6A9C4504D8B96A8E428E
:10101000D4D99C45D2D11168EFF3108072B60B6819
:10102000002BFCD0BFF35F8F1368BFF35F8F414687
:10103000196080F3108820BFE5E7002ABED0D1E711
:10104000BD0A0010F4010020C00E00200040054041
:1010500070B5060000F0EAF8FA2204000D00002343
:1010600030000021920002F0DDFD001969410029E5
:1010700002DBFFF78BFF70BD012001494042F8E71A
:10108000FFFFFF7FF0B5EFF30583CE46474680B5FF
:1010900005000C0085B0002B12D02C4A0020536AAA
:1010A0009C4203D8926A0130AA4204D305B0C0BC66
:1010B000B946B046F0BDE01A421E9041C0B2F5E715
:1010C000234E02930193234B0200009330000B0048
:1010D000FFF7A0FE031EE0DD20BF7168EFF310876D
:1010E00072B60A68002AFCD0BFF35F8FDAB294466A
:1010F0003068427B62451DD0FF221A40510089466C
:101100000168914488464946414403398978002959
:1011100013D0F1681B0A88464244013A1278DBB2C8
:101120009A420FD07368BFF35F8F00221A6087F373
:101130001088B2E7FF221A40EBE732699342F1D1FF
:101140003161EFE7614600F01FFBEBE7004005402F
:10115000F4010020BD0A0010F0B5EFF30582D64679
:101160004F4646461000C0B51038EFF3108872B6EF
:10117000214C2368002BFCD0BFF35F8F01231900A3
:1011800081401E4D1F006963AA461D4D29601D4DFB
:101190002E78AC463500C5402F402B4209D1BFF315
:1011A0005F8F276088F31088E0BCBA46B146A84636
:1011B000F0BD5346144D5F6A83005D59AF420ED3B4
:1011C000124A8E439B5862461670BFF35F8F00220F
:1011D000226088F31088002BE6D09847E4E70C4B98
:1011E00092009C46624413681360BFF35F8F002334
:1011F000236088F31088D7E7280100D0004005401D
:101200003C700540DE0E0020C40E00201C0D0020A6
:10121000D03F054010B50100024A0348FFF74CFAE1
:1012200010BDC04610650010DC0E0020034B596A4B
:101230000A00986A596A8A42FAD17047004005400C
:1012400070B504000D00124A536A1900966A536A79
:101250008B42FAD13000190024184D41AB4211D80D
:101260000ED02B000A494A6A9A42FCD307D1084A99
:1012700002E0516A994202D1916AA142F9D370BD4C
:10128000A642EED9012301246442E5175B42E9E757
:1012900000400540064A536A9942FCD807D1044BE6
:1012A00002E05A6A914202D19A6A8242F9D37047A7
:1012B0000040054070B504000D00EFF3108672B6D3
:1012C0001A4A1368002BFCD0BFF35F8F002D1BD090
:1012D0002000FFF73FFA164981420AD02000FFF7AD
:1012E00041FA01212000FFF723FA0123A340114A0C
:1012F0001360114BA400E550BFF35F8F00220B4B2E
:101300001A6086F3108870BD0B4BA200D5500122E5
:10131000A2400A4920000B7893430B700449FFF761
:101320004BFA00212000FFF703FAE5E7280100D07F
:1013300059110010386005401C0D0020DE0E002001
:10134000F0B54F46D6464646C0B507002C4C616AFC
:101350000D00A66A616AA942FAD18B4208D805D06D
:101360000120E0BCBA46B146A846F0BDB242F7D96A
:10137000EFF3108A72B6234801680029FCD0BFF34E
:101380005F8F0125BD4020491D4C8846097889465C
:101390002943C9B28C46414660460870391D1B4836
:1013A000890065630A51B9000B50216A0020294267
:1013B00019D0616A0800A66A616A8142FAD18B423B
:1013C00019D801D1B24216D8CC4516D00C4B1F20EB
:1013D0001D625D6301230740BB400D4A1E38136048
:1013E00043464A461A70BFF35F8F0022054B1A60CE
:1013F0008AF31088B5E70020F5E70120F3E7C0463F
:1014000000400540280100D0DE0E0020C40E002060
:1014100080E200E0EFF3108C72B60A490B68002BF3
:10142000FCD0BFF35F8F01238340074A0748136254
:1014300002789A430270BFF35F8F00230B608CF336
:1014400010887047280100D000400540DE0E0020C3
:1014500070B5050014001600002915D00C00002AF4
:1014600012D080686B689847296800280ED07300F6
:101470009B196200033B1219CB18033A9C70881821
:101480008A5C002A15D10670200070BD63001B190C
:101490007200033B9219CB18033A9E7088188A5C3D
:1014A000002A02D104703400EEE75A700470340050
:1014B000EAE75A700670E7E730B583600023CCB2E4
:1014C00043730133047342608373C4730D00006877
:1014D000012C06D9421C0133DBB2137003329C424B
:1014E000F9D1FF2129404B00591800234018033837
:1014F000437030BDF8B5CE46474606000C0080B5B7
:10150000002907D04D0003686D18033D5A1957781C
:10151000002F04D12000C0BCB946B046F8BD790008
:10152000C9190339884643445978894600215970BE
:10153000517073683A00210080689847336800282A
:1015400014D042469A18947059195B5D002B00D054
:1015500053700F70270049463000FFF7CBFF39006A
:1015600002003000FFF774FF0400D3E74246414613
:101570005D19AF709A185B5C002B00D06B70147013
:10158000E9E7C046F0B557464546DE464E46E0B56B
:101590000D006B0001685B19DF1E0400C85D83B09D
:1015A0000192CA19002850D043001B18033BCB18E6
:1015B0005E78B446002E1AD1019E002E42D0E67B02
:1015C000002E04D073009B19CB18033B5D70A37BE6
:1015D000002B00D1A573E57300282FD10023537091
:1015E00003B0F0BCBB46B246A946A046F0BD7200AF
:1015F0006244033A89184A78904600224A7091461C
:101600005A70010032002000FFF722FF4346824655
:10161000002B07D05B0021684344033BCB185A786A
:10162000002A16D1424651462000FFF711FF2168DB
:10163000019BCA19002BC2D10028CFD043001B1830
:10164000033BCB1800219970C8E7019B002BB6D152
:10165000C4E7500080180338091848788346484684
:101660004870587041462000FFF7F2FE5946804608
:101670002000FFF73FFF414602002000FFF7E8FE91
:101680008046CFE7F0B557464546DE464E46E0B5C4
:1016900083B00191457B04006B0000685B19DF1E7D
:1016A000C15DC219002952D04B005B18033BC3181F
:1016B0005E78B446002E1CD1019E002E44D0E67BFD
:1016C000002E04D073009B19C318033B5D70A37BED
:1016D000002B00D1A573E573002931D10023280028
:1016E0005370617303B0F0BCBB46B246A946A04636
:1016F000F0BD72006244033A80184278904600229E
:10170000427091465A7020003200FFF7A1FE434616
:101710008246002B07D05B0021684344033BCB1873
:101720005A78002A17D1424651462000FFF790FE12
:10173000019B01002068C219002BC0D10029CDD027
:101740004B005B18033BC31800209870C6E7019B51
:10175000002BB4D1C2E7500080180338091848782C
:10176000834648464870587041462000FFF770FE97
:10177000594680462000FFF7BDFE4146020020008A
:10178000FFF766FE8046CEE770B5040000292CD036
:10179000437B8B422ED00568480040180338281838
:1017A0008278002A21D053009B18033BEA5CEE1894
:1017B0008A4202D11BE0002A08D053009B18033B49
:1017C000EB185A788A42F6D142785A7000230122E7
:1017D000837043702000FFF7D5FE617B020020007C
:1017E000FFF736FE6073012000E0002070BD4378F3
:1017F0003370EBE701221900FFF7C4FE607301208C
:10180000F4E7C046F8B5CE464746040080B506204A
:101810000E0000F023FA051E51D0524B5249E21837
:1018200053425A418023DB039C4692054F4B62444E
:101830001A604F4B1A6010008B689843FBD1494BDC
:101840008021E3185A4253414A4A5B0049009952A9
:10185000062000F003FA3100C00001F06BFEC3095E
:1018600032D14022012190466162A362256BEB07D1
:1018700036D427008026E36A00232C3776013E43C6
:1018800033600620256300F0E9F94146800001F04D
:1018900051FE236B05009846DB073BD46022E36AC8
:1018A0005A406E2313403360434623638023102243
:1018B0009B013B431A60304B23630323A36428003E
:1018C000C0BCB946B046F8BD2C4A93423FD900236C
:1018D0002B492C4A6162A362256B9046EB07C8D561
:1018E0002200C02330329B011343234A06201A6092
:1018F000666AA26AB601B61800F0B0F9224901F092
:1019000019FEB6020100300001F014FE0021FFF7BD
:1019100097FCAEE72200C02330329B011343164AE6
:1019200006201A60636AA26A9B019946914400F0FE
:1019300095F94B4614499B02994601F0FBFD0100C5
:10194000484601F0F7FD0021FFF77AFCA6E77F2269
:101950009901884610400130400819008044030076
:1019600082E7C0460080FCBF00C0004000E00040AD
:1019700000F00040D40E002001030000FEFF000034
:10198000FFFF0000C0FF3F004E0E000030B50C20EE
:1019900083B000F0B9F9FEF787FE00280ED0994B0E
:1019A000994A1A605A609A60DA601A615A619A61BB
:1019B000DA611A62954A5A6203B030BD944CA0674E
:1019C00000F0AAF90122934B1A60636C012BFCD141
:1019D0000322914B1A608E4A936B012BFCD1013389
:1019E00001218E4A8E480093043300F03DF905230F
:1019F0008C4A009301218C4800F036F98B4B5A68D1
:101A0000FF2A02D8802252005A6080227D4C824BED
:101A100021691201854D1A60002907D0606901F023
:101A200089FD431C5800C0180338FDD2E0217F4BCC
:101A300002201A681140802252012A43116019685D
:101A4000484003210140116004219A681142FCD0F2
:101A50008022802192012A430901116080225200D4
:101A60005A60734B2361734B5968FF2900D85A6041
:101A70000321684A6F4B116002399A681142FCD009
:101A8000E0201A681040802252011A431060186842
:101A90004840032101400220116066498A681042D3
:101AA000FCD0802292011343802212011A6080220E
:101AB000614B52004A606361604B5968FF2900D84E
:101AC0005A6080225E4BE16912015C4D1A60002968
:101AD00007D0606901F02EFD431C5800C018033880
:101AE000FDD2E02255490B681A4080235B012B434D
:101AF0001A60802380229B012B4312011A608022EE
:101B0000414B52004A60E3614E4B5968FF2900D8AF
:101B10005A6080224C4B216A12014A4D1A600029FA
:101B200007D0606901F006FD431C5800C018033857
:101B3000FDD2E02243490B681A4080235B012B430E
:101B40001A60802380229B012B4312011A6080239C
:101B500080225B004B602C4BD20223623B4B5968C6
:101B6000914200D25A608022394B616A1201374D8E
:101B70001A60002907D0606901F0DCFC431C5800A2
:101B8000C0180338FDD2E02230490B681A40802388
:101B90005B012B431A60802380229B012B4312019F
:101BA0001A608023DB024B60184B6362294B5A6832
:101BB000FF2A02D8802252005A608022264BA16957
:101BC0001201244D1A60002907D0606901F0B2FCAF
:101BD000431C5800C0180338FDD2E0221D490B6891
:101BE0001A4080235B012B431A60802380229B01D3
:101BF0002B4312011A6080235B004B600E4BA361E4
:101C0000DAE6C046340D0020006CDC021BB7000091
:101C1000008000403CB0004030B00040002F6859C8
:101C200000800240008C864700C0024030800040A7
:101C3000001BB7003C8000404059730754800040AF
:101C400054B000406080004060B000406C800040B4
:101C50006CB000404880004048B00040014B80001C
:101C6000C0587047340D0020F8B5040021481D000D
:101C700017000E0001F05EFC0100380001F05AFC74
:101C8000069B29041B0319432368002B20DB1A4BF6
:101C90001A4DE21853425A4180235B019C461203BD
:101CA000174B62441A60174B1A601700AB689F43CA
:101CB000FBD1C022231D92011A4321232660A0607C
:101CC00013602368002BFCDA0823E1601360F8BD81
:101CD0003F2322681340B342D9D1A3681B051B0DD3
:101CE0008342D4D1EE22E368D20213408B42CED19C
:101CF000EDE7C046001BB7000040FDBF00C000403C
:101D000000E0004000F000408023024A9B000343B3
:101D1000D362704700800540AA23064A1B01136066
:101D20002F230549D360054B19605368002BFCDA5B
:101D30007047C0460040024000B0FA000060024018
:101D40002C4B2D4A70B51A602C4A2D4B2D491A6028
:101D500014008B689C43FBD12B4D2C4EB54208D20E
:101D6000013E761BB60808CD984723000134B342E4
:101D7000F9D1FFF70BFE264A214B1A60214A9368DE
:101D8000DB43DB01DD09002BF9D14022214B224C42
:101D9000224E9A675A671A67DA66B44208D22368F5
:101DA0002000002B20D00834FEF760FEB442F6D3AA
:101DB0001B4E1C4CC022A168300001F0EDFFA66054
:101DC000FEF79CFCFEF72AFEFEF7EEFF164C174EC0
:101DD000B44208D2013E361BB60808CC98472B0007
:101DE00001359E42F9D170BD0834FEF731FEB44290
:101DF000D5D3DDE700E00040BFCDFBFEFE7F3C0019
:101E000000F0004000C00040B00A0020C00A0020DE
:101E1000FFFFFF0100F00140A80A0020B00A0020E7
:101E20000000002000ED00E0C00A0020C40A0020ED
:101E300000BEFDE7094A03001068002805D00849E4
:101E4000C3188B4207D81360704706480449C3186B
:101E500010608B42F7D901204042F5E7A40D002025
:101E600000000420E00E002010B5FFF7E1FFC0469F
:101E70000FB400B5084883B002F0F2F8049B002BC1
:101E800007D005A91800019101F0DAFA034802F021
:101E9000E7F80120FFF7CCFF34650010446500101F
:101EA00010B50148FFF7E4FF486500107047C046D1
:101EB000F8B557464E464546DE46E0B599460A9B7C
:101EC00007009A460D9B8846934615000B9E9B077C
:101ED00010D10C9B9E420DD29D1B14000E005D4440
:101EE00022004B46013431002020B847A542F7D1EB
:101EF000B0460B9E002E27D0444675195346AA1BA8
:101F0000013E985D21004B46B847002EF6D12300D4
:101F10002C0098460D9B9B070FD55B46E51A0C9B42
:101F2000AB420AD94646984622004B463100202053
:101F30000135B8470134A845F6D82000F0BCBB46AF
:101F4000B246A946A046F8BD2C00E3E7F0B54F46DF
:101F50004646D646C0B584B098460EAB1B78129F55
:101F6000994694460D9C109B119EBA0725D4002ECD
:101F70004BD19C4200D3BFE001223A4092461F2C35
:101F800000D9B8E00C9A551E302201E0202C03D075
:101F900001342A55A342F9D85246002A0DD0A64250
:101FA0000BD9202C44D00C9A551E302201E0202C55
:101FB0003ED001342A55B442F9D1FA064DD57A05FE
:101FC0003FD4002C39D10F9B102B00D179E00F9B0F
:101FD000022B00D18AE030230C9A012413704B4667
:101FE000002B3FD02D230C9A135501340C9B6246D5
:101FF00000930397434602960194FFF759FF04B0FC
:10200000E0BCBA46B146A846F0BD012215003D40ED
:10201000AA463A422FD04A46002A02D10C323A420E
:1020200000D0013E9C42BAD21F2CABD9202E27D91A
:102030002024FA06DAD57A0503D4A3422DD0A6428D
:102040002BD00F9B102B32D0022B20D0202CCDD0A8
:1020500030220C9B1B191A700134202CC6D04B4621
:10206000002BBFD17B070DD43B07BFD520230C9A93
:1020700013550134BAE79C429FD21F2C00D881E748
:1020800020249AE72B230C9A13550134AEE7202C19
:10209000ACD00C9B1B1901343AE0631E012C92D08A
:1020A0000F9A102A2AD0022A2FD01C00D0E7BB0694
:1020B0000ED4202C9AD00C9B1A190134782313705B
:1020C000C4E7BB060DD478230C9A01241370BFE734
:1020D000202C00D18AE758220C9B1B191A7001345E
:1020E000B4E758230C9A01241370B1E70C9A6033BB
:1020F00001241370ACE7202400265EE7023CBA06F8
:10210000E9D40C9A12191C00D8E70C9A9246534451
:1021100062221A709AE7C04610B5002800D110BD9F
:1021200001F052FFFBE7C0460B0010B5002802D0BB
:1021300049681B68984710BDF0B5DE4657464E46C5
:102140004546E0B59BB09B46249B89469846259B17
:102150000B900C924046424619009A4601F0A3FCAF
:10216000002800D0D8E0012240465146774B524229
:1021700001F094FC002800D0CEE0012240465146F8
:10218000734B524201F074FC002800D0C4E00022DE
:1021900000234046514601F06BFC002800D0B9E115
:1021A000424653460A9209938023289ADB001A403C
:1021B0000E92289A1A4201D1062326930A9A099B65
:1021C0001600134300D0C7E0289B002500261B05FE
:1021D00000D49BE100230D93269A0D9B9A4200DCCC
:1021E0009FE1D01A431E26938023289ADB001A43CE
:1021F0000023002728920D93279B0024BB4200D97F
:10220000DC1B0223289A1A400E92289A134203D00C
:102210007B427B415B421C400D9B002B07D00A9800
:1022200009992A00330001F0CAFB0A9009910022A3
:1022300000234046514601F01BFC002805D08020B9
:1022400000068446099961440991289A414B0B9DE7
:1022500013400493269B0A9A0293099B03940092CD
:10226000019349465B4628000C9A00F08BF9040064
:10227000002F62D0289B220098061F23C017984386
:10228000631C984649465B466530A8470D9B002570
:10229000DA179C18DB0F9A465440013F01E0202DCD
:1022A00013D00AAA94461F23200063440A21013553
:1022B0005E1901F03FF93031317020000A2101F040
:1022C00039F926000400092EE9D8052306930023D6
:1022D00004930A330393534605970B9F029312AB63
:1022E000009342465B46494638000195FFF72EFEB3
:1022F0000E9B0400002B20D00C9BC51A279BAB42E1
:102300001BD91E0022005B46494620200135B847F4
:102310000134AE42F6D810E0289B42460493279B36
:1023200049460393269B0B980293534600920193D0
:102330005B460C9A00F026F9040020001BB0F0BCAC
:10234000BB46B246A946A046F0BDC046FFFFEF7FA0
:10235000FFFFEFFFFFF7FFFF734B099F9C467800DD
:10236000400D604401F0B2FB704A714B01F041FB3B
:10237000704A714B01F01EFB3B03704A1B0B1A4362
:1023800004000D00300011006D4B002201F00DFB28
:102390006C4A6D4B01F02DFB02000B002000290060
:1023A00001F008FB01F0AAFB0D9001F08FFB674ADA
:1023B000674B04000D0001F01CFB0022654B01F08F
:1023C000F9FA01F09BFB644A0600644B20002900E7
:1023D00001F00FFB040030000D000F9601F076FBBA
:1023E0005F4A604B01F005FB02000B002000290052
:1023F00001F0DBFA02000B0006000F0001F0F9FA11
:10240000320004000D003B003000390001F0D2FA28
:10241000002210901191544B2000290001F0CFFAB6
:102420000022524B01F0C6FA02000B0020002900E6
:1024300001F0C5FA00224E4B01F0BCFA02000B007D
:102440002000290001F0BBFA0D00802104003200B9
:102450003B000020C90501F0A8FA02000B00200093
:10246000290001F0A7FA02000B001098119901F061
:10247000A6FA0022314B01F09DFA3E4B0F9C9C4680
:1024800064440022230501F0B4FA05000E000200A6
:102490000B000A98099901F0EBFA00280AD00D9B6D
:1024A0002800013B31000D930022304B01F087FAE8
:1024B00005000E00C6270D992B0063318F42BF41E6
:1024C00028997F420437090500D495E6334300D1AB
:1024D00082E6099C284A2100284B0A9801F0D6FA86
:1024E000002808D000222100254B0A9801F0C0FAEC
:1024F000002800D070E6269B002B00D17CE60E9BC6
:102500005A1E9341269AD31A269375E60023042770
:102510000D9371E643460A9380231B0653440993A7
:1025200042E6002326935FE601FCFFFFFB799F5004
:102530001344D33FB3C8608B288AC63F0000F03FE6
:102540000000F83F61436F63A787D23F71A3790909
:102550004F930A400000E03F1655B5BBB16B0240F7
:10256000EF39FAFE422EE63F00002C4000002440E6
:1025700000001840FF0300002D431CEBE2361A3F19
:1025800080842E41F0B54E46DE4657464546E0B5BE
:1025900097B09946209E219F229B8346984607919B
:1025A0000C923B0032003000390001F07CFA002828
:1025B00000D0A9E1012230003900CA4B524201F09B
:1025C00057FA002800D0E1E0012230003900C64B64
:1025D000524201F063FA002800D0B7E00022300038
:1025E0003900C24B01F05AFA002800D099E00022CD
:1025F00030003900BE4B01F03BFA002800D090E0DB
:10260000002200233000390001F032FA002800D007
:10261000B1E000230D93249B5B0501D4062398466B
:1026200008AB9C461722002430234146624404E054
:10263000013413550139202C01D00929F8D88846D6
:102640003000390001F05AFA4346DA00A94B050080
:102650009B181A685B680892099301F037FA020028
:102660000B003000390001F0A0F9089A099B01F035
:10267000C0F90A900B9101F065FA824601F022FA46
:1026800002000B000A980B9901F08FF900229A4B77
:102690000A900B9101F002FA002800D1C0E001235A
:1026A0009C46E244504601F00DFA02000B000898E7
:1026B000099901F0E3F9002802D000239A46013578
:1026C0004346002B6AD008AB17269C460895664403
:1026D000554614E001235B4243440A2128009A46F0
:1026E00000F028FF013430313719397028000A21F1
:1026F00000F020FF092D00D8D0E0D0460500202CA6
:10270000E8D10EAB98460323249A1340012B00D145
:1027100096E02023249A01930392239A434602923F
:102720001EE0249B58460493239B00960197039335
:1027300043460C9A029307994B46FFF7FDFC17B0EE
:10274000F0BCBB46B246A946A046F0BD249B5B0741
:102750000ED40322694B249901920391239902918B
:10276000009358464B460C9A0799FFF7A1FBE6E702
:102770000422634BEFE73B0032000020002101F010
:1027800014F9012306000F000D9344E7249B0393E3
:10279000239B0293042301935A4BE1E7280001F0A5
:1027A00095F902000B003000390001F0FEF8524BA1
:1027B000002206000F0001F05BF90EAB98460028DE
:1027C0000AD10022300039004B4B01F067F9002894
:1027D00002D1EB0700D50135202C94D008AA9446ED
:1027E0001723280063440A2101341E1900F07AFEE1
:1027F0003031280031700A2100F074FE051EEBD143
:102800000323249A1340012B1BD0202C00D180E7F6
:102810000D9B002B35D02D224146631C0A5579E7CC
:1028200000220A980B99344B01F022F9002800D0BD
:1028300046E75346002B51D101239C46E2443FE733
:102840002024239B002BE0D00D9B002B03D1249A46
:102850000C33134202D0239B013B2393239BA342BF
:10286000D3D908AB9C46172230236244202C00D1D8
:102870004FE72399013413558C42C6D0202CF8D150
:1028800047E7249B5B0724D4249A2300120700D433
:1028900040E72022414601330A553BE75746089D51
:1028A000202C00D12DE7220030214046002F09D0F6
:1028B0000132B154202A00D123E7D3431B191B183E
:1028C000002BF5D10EAB98462E234146541C8B5459
:1028D00082E72B224146631C0A551BE7DB0700D425
:1028E000EEE6A9E7FFFFEFFFFFFFEF7F65CDCD41EC
:1028F00065CDCDC1506700100000E03F5465001069
:102900005865001064650010249B0393239B029379
:1029100003230193004B23E760650010F0B5DE460A
:102920004E4657464546E0B59FB01C00289B914651
:102930000993C94AC94B8B4608901A60002900D1F7
:1029400018E2002320789A46002800D11AE22600D7
:102950001D005C460AE02A006F1C4B46089D2100C2
:10296000A8473D0001363078002870D02528F2D1E4
:1029700010239B46083B9A46043B9846023B0021A5
:102980009C46721C107816000300203BDBB2102B13
:1029900003D8B34F9B00FB589F460300303B092BE5
:1029A00032D900230A932A2868D0002398462E287B
:1029B0003ED00300683BDBB2122B1CD8A94A9B0017
:1029C000D3589F46012301321943DBE763460132A6
:1029D0001943D7E7434601321943D3E75B46013237
:1029E0001943CFE7534601321943CBE780235B00FD
:1029F0007078194301360300253BDBB2532BAAD86C
:102A0000994A9B00D3589F4600270300B800C0197D
:102A100001364000C018337830381A00303A0700C9
:102A2000092AF3D90A901800002398462E28C0D10D
:102A300080237078DB0019430300303B721C092BA4
:102A400000D8A1E12A2800D1B2E11600B1E7A346DF
:102A5000AA462C00D14503D801235B424B449A4639
:102A60004B46524659460020089DA84720001FB0FB
:102A7000F0BCBB46B246A946A046F0BD099B40CB80
:102A80000A96002E03DB50780993561C8DE72838F0
:102A9000014370420A9009935078561C85E77828C4
:102AA00000D1DFE1582800D14CE26F2800D14FE37C
:102AB000622801D100F030FC10230A009A430B92E7
:102AC000692801D000F0A9FC0A230C934B0500D51E
:102AD000D0E10B9A802311009B0019408B461A42CB
:102AE00000D0A1E2802311005B0019408A461A42FF
:102AF00000D0B6E313005B0600D5EDE213000999A0
:102B00001B0601D400F076FC08C91BB2D8171A18AE
:102B1000424092B209919346DA0F1292002B09D1EA
:102B2000802310220B99DB000B4091430B91002B6B
:102B300000D0E4E20B9A6123920600D541230EA94E
:102B40001F228C46DBB262440A3B5F461395A346C4
:102B500055460C9CB2460D9316000AE03033DBB2AA
:102B600001357355A74200D2EDE2202D00D1EAE2F3
:102B700007002100380000F0DDFCCBB20929EDD9B7
:102B80000D9A94466344DBB2EAE780239B00707899
:102B9000194301362FE77078682800D1CDE18023F2
:102BA0000136194327E770786C2800D1BFE18023F4
:102BB0005B00194301361EE7462800D19BE107223E
:102BC000099B0491073393430A9A190003924246E2
:102BD00002920CC908980092019309912A004B4671
:102BE0002100FFF7CFFC01360500BCE62A006F1C70
:102BF0004B46089D21002520A84701363D00B2E63E
:102C00008B0700D4ADE1099B2A009A466B1C9846BD
:102C1000534601CB21009A46089F4B46C0B2B847A5
:102C20000A9B9C466544012B00D886E2089B4746D8
:102C3000B04626004C4699463A0023000137310041
:102C40002020C847AF42F7D1A1465346340046463C
:102C50000993013687E6C0461D290010A80D002003
:102C60006C650010B0650010FC650010099B04CB7A
:102C70009B4643460992002B00D1C6E013789C4640
:102C8000002B00D1BDE34346013B099A0133D01824
:102C90000A9F130001E0834203D05A780133002ACF
:102CA000F9D1099A0A979B1A0B9380230A00DB003B
:102CB0001A400C92194204D00B9B434501D943465C
:102CC0000B9302231A000A400D920B4200D187E1B8
:102CD0006046002800D168E10C9B002B00D10DE17B
:102CE000A844C246099B57465B1B9846089BB246C0
:102CF0002A0026004C46994609E023003100551C65
:102D0000C8474346585D002800D126E12A00974273
:102D1000F3D1A1463D00340056460D9B002B00D058
:102D200043E15B46013609931DE6099B1A0008CA78
:102D30009246002B48D0212211438B460EA8844690
:102D40001F216144099500220F27A4460D0002E0CF
:102D5000202A0CD00B003C001C4020003730092CEE
:102D600000D807380132A85419090F2BF0D864464F
:102D7000099D32E0DC4B2078089300239A46002816
:102D800000D0E4E5002465E6434606000A9F98006B
:102D9000C018013240008019167803003000303826
:102DA000303B0928F3D93000984616000A9700E610
:102DB000099B023604CB9046D2434046D2171040BE
:102DC000804609933078F4E51022080090431132D0
:102DD0001043834600224905B0D55B46069308237D
:102DE000059343460493102303930023029316ABE9
:102DF000019200932A004B4621000898FFF7A6F89D
:102E00005346050001360993ADE513789C46002B27
:102E100000D1F7E202235B4237E7202302009A4306
:102E2000472A04D180231B011943022398434528D4
:102E300001D1202319430722099B049107339343AF
:102E40000A9A19000392424602920CC9089800920D
:102E5000019309912A004B462100FFF76DF90136D5
:102E6000050080E510230C930C230A009A430B9273
:102E70004B0503D501230B9A9A430B92692800D185
:102E800027E6642800D124E60B9A802311009B00DA
:102E900019408B461A4200D066E1802311005B0086
:102EA00019408A461A4200D039E213005B0600D569
:102EB0003CE113001B0600D4A6E2099B04CB1204DC
:102EC000120C934609935B46002B00D09AE10B9AB3
:102ED0001033110099430B91520500D492E1002365
:102EE0009A460B9B06930A9B0593434604930C9BBF
:102EF000039300230CE12023194360E6099B0A9AFF
:102F00005B1B98464B4691461F00B2462600089C24
:102F10002A003B003100A04743460135585D002898
:102F2000F6D14A463400B94656460A92F5E6C02321
:102F30009B00B078194302365DE5C023B078194391
:102F4000023658E50C230A009A4314331A43103B07
:102F50000B920C934B058DD496E7A1463400564650
:102F6000DBE60A9A012A00D853E26B1E9F18089BE1
:102F7000B04626004C4699462A0023000135310010
:102F80002020C847BD42F7D1A14634004646099BE0
:102F90003A0001CB210098467D1C4B46089FC0B2E9
:102FA000B847434601360993DDE40B9B0A9AA846CD
:102FB0009A4200D8B5E694466544ED1A089B474608
:102FC000B04626004C4699463A00230001373100AE
:102FD0002020C847AF42F7D1A14634004646A0E6BC
:102FE0000B9A0A99531C914200D814E24B199B1A70
:102FF0001F00089BB24626004C4699462A00230033
:10300000013531002020C847BD42F7D10A9BA146B7
:1030100001330B93099B34001B7856469C4660464F
:10302000002800D058E67CE60722099B073393432B
:10303000013294469C4462465F6809921A68FB1705
:103040001093119310981199030053400E930B00A5
:103050007B400F9394460E9A0F9B121A8B410E924F
:103060000F93FB0F6246129300233A439B463DD0D9
:103070000B9A6123920600D541230022DBB20EA9F0
:103080000A3B8C4692460D9343461F326244139589
:10309000159655460E9E0F9FA24690460C9C149383
:1030A0000CE03032D2B2434601355A55BB4500D10F
:1030B0008AE1202D00D18AE106000F0022000023C2
:1030C0003000390000F074FAD2B2092AE9D90D9B18
:1030D0009C466244D2B2E6E7FF23099904C9134033
:1030E0001A00099117E5C046AD1E00100B9A103367
:1030F000110099430B915205BAD500239A460B9BB8
:1031000006930A9B0593434604930C9B0393129BDF
:1031100002935346019316AB2A00009321004B46BD
:103120000898FEF713FF013605001CE4FF22099BF7
:1031300002CB11408B460993C5E653464546099399
:103140000136FFF710FC56465C46AA46139DD6E7AB
:1031500008230C930B910B99642800D084E60B9BF9
:103160005B0500D586E6B4E40722099B0733934349
:10317000013294469C44624609921A685B681000CA
:103180009B4613005A46134307D10B9A1033110084
:1031900099430B91520500D5A1E60B9A6123920643
:1031A00000D541230022DBB20EA90A3B8C46924691
:1031B0000D9343461F3262445F461295A34655461F
:1031C0000400B24690460C9E13930DE03032D2B20A
:1031D000434601355A550023BB4200D100E1202D62
:1031E00000D100E104000F0032000023200039006C
:1031F00000F0DEF9D2B2092AE8D90D9B9C46624460
:10320000D2B2E5E70B9A6123920600D54123DBB2E7
:103210000EA90A3B1F228C460D93230062445C4694
:103220001295170055469B46B2460C9E08E0303377
:10323000DBB201357B55B4420ED3202D0CD00400F7
:103240003100200000F076F9CBB20929EFD90D9AB0
:1032500094466344DBB2ECE756465C46AA46129DB0
:103260003FE6099B1A0008CAD91713925A184A4018
:103270009246DA0F1292002B08D1802310220B996C
:10328000DB000B4091430B91002B2BD10B9A612358
:10329000920600D541230EAA1F279446DBB20A3BB3
:1032A0000D9567445D460993A3465446B2460C9E6D
:1032B00008E03033DBB201357B55B4420ED3202D0C
:1032C0000CD004003100200000F034F9CBB2092901
:1032D000EFD9099A94466344DBB2ECE756465C4664
:1032E000AB460D9D0B9B2A0006930A9B210005937C
:1032F000434604930C9B08980393129B0136029358
:103300005B46019316AB00934B46FEF71FFE139BE3
:1033100005000993FFF727FB02230C931AE7099B8B
:1033200004CB92461293002A08D1802310220B99D5
:10333000DB000B4091430B91002B2BD10B9A6123A7
:10334000920600D541230EAA1F279446DBB20A3B02
:103350000D9567445D460993A3465446B2460C9EBC
:1033600008E03033DBB201357B55B4420ED3202D5B
:103370000CD004003100200000F0DCF8CBB20929A9
:10338000EFD9099A94466344DBB2ECE756465C46B3
:10339000AB460D9D0B9B2A0006930A9B21000593CB
:1033A000434604930C9B08980393002302935B46C7
:1033B000019316AB00934B46FEF7C8FD129B050028
:1033C00009930136FFF7CFFAB44200D871E6149B97
:1033D00054460E960F97AA469846159E139D8EE664
:1033E000A64200D8FBE6139B56469846AA465C4682
:1033F000129D76E508C9D8171A1842400991FFF7BF
:103400008AFB00230B9350E4099B04CB934609935A
:1034100059E52F00BBE50B9301E6063B0C939AE6BA
:1034200000B585B003910121029000930348130079
:103430004A4202A9FFF772FA05B000BD2921001027
:1034400010B5094A0300146884B0002C08D001228A
:1034500000910648524203A9A047012004B010BDC4
:1034600000F0FEFD0020F9E7A80D00201921001052
:1034700001480421014B184720020020A13400100C
:10348000142310B50100188804331B88984710BD19
:10349000162310B50100188802331B88984710BD09
:1034A000F8B54746CE4680B50F1E19D0142399466D
:1034B000043304000025012698464B4618884346ED
:1034C00021681B88984701C4431E9841013540423A
:1034D0000640AF42F1D13000C0BCB946B046F8BD9D
:1034E0000126F8E7124A936F9B0815D29066D166C1
:1034F000002905D0FFE7FFE7FFE7516F106F704726
:1035000004B580210906C2175140002800D0C843E5
:1035100002F072F8002104BDF0B5146E556E576FBD
:10352000166FFFF7E3FF1466556657671667F0BD21
:10353000000000D0114A936F9B0813D210665166A9
:10354000002905D0FFE7FFE7FFE7516F106F7047D5
:1035500004B5002801D00020C04302F04DF800213E
:1035600004BDC046F0B5146E556E576F166FFFF769
:10357000E5FF1466556657671667F0BD000000D07A
:1035800094464A4A926F9208624601D228E0C046A9
:10359000F0B5464E346E756E776F366F00F020F8DA
:1035A0009446424A14665566576716676246F0BDF0
:1035B00094463E4A926F9208624601D254E0C04659
:1035C000F0B53A4E346E756E776F366F00F04CF88A
:1035D0009446364A14665566576716676246F0BDCC
:1035E000002B24DB11D000293EDA00B5C94340424C
:1035F00000D1013100F038F8C943404200D1013117
:10360000DB43524200D1013300BD002AEBD1002838
:1036100001D1002905D00020C90FC90701D1C0433D
:10362000410800B501F0E0FF0022002300BD00B515
:1036300000290ADBDB43524200D1013300F014F8C9
:10364000C943404200D1013100BDC943404200D1CD
:103650000131DB43524200D1013300F005F8DB4376
:10366000524200D1013300BD002923D1002B18D1D3
:10367000002A0CD0BC460D4F38667A660021002324
:10368000FFE7FFE7FFE77A6F386F6746704700286C
:1036900001D00748010000B501F0A6FF0022002379
:1036A00000BD02000B00002000217047000000D088
:1036B000FFFFFFFF002B00D0BFE0130C28D1002A32
:1036C000E7D080B4114F39667A66FFE7FFE730B480
:1036D000040C7B6F396F1B0423433B667A66FFE75C
:1036E000FFE7FFE7C04684B27B6F3D6F1B042343B7
:1036F0003B667A66FFE7FFE7C04600232C042D0CEB
:103700007A6F386F00196941B0BC7047000000D073
:10371000F0B594460025140E01D112020835140F9D
:1037200001D112010435940F01D192000235D40F5A
:1037300001D152000135D40B0134254F7C66254C54
:103740003C660E0C93B2FFE7FFE7FFE73C6F664372
:10375000360C7703BE467343DF0B5B04C01AB941D6
:10376000130C7343DB18C91ACE086643360CB644F3
:1037700093B273431F0F1B01C01AB941130C73435B
:103780001F0B1B05C01AB941860D8F023E436643CD
:10379000360C092D24DB520A7243801A7703460A3D
:1037A0006643360C16235B1BDE40DF40BF196446C0
:1037B0006643821B7046043506330100D940A84099
:1037C000C01900D30131A24206D20023F0BD00008F
:1037D000000000D0FFFFFFFF121B0130F3D3F1E721
:1037E00009277F1BFE406446A2B27243801A00D2B2
:1037F0000139220C7243130C1204821A99410B00F6
:103800007046043513370100F940A840801900D3F1
:103810000131002B02D1A2420AD2F0BD013000D307
:103820000131121BFAD2013BF8D1A24200D2F0BD05
:10383000013000D30131121BF7E7F0B51C0C00D0AA
:1038400080E00CB400251C0A04D11B02160E334381
:10385000120208351C0B04D11B01160F3343120151
:1038600004359C0B04D19B00960F33439200023524
:10387000DC0B02D192185B4101351C0097186441A2
:103880000134464F7C66464C3C660E0CFFE7FFE772
:10389000FFE7C0463C6F6643360C7703BE4697B2DF
:1038A0007743C01B00D20139C01B00D201399FB23F
:1038B0007743C91BC91B170C77437E04FF0B801B82
:1038C000B941CE086643360C0C2D33DBB644120BDF
:1038D0001F053A431B0B97B27743C01B00D2013937
:1038E0009FB27743C91B170C77433E043F0C801BE4
:1038F000B941860D8F023E43664329277F1BFE4058
:103900000C3D7746AF40BF1930BCA2B2ABB2724398
:103910007343801A9941220C7243130C1204801ACB
:10392000994102000B000137001BA941F9D2781E12
:103930000021F0BD0C277F1BFE4077467F0BAF4078
:10394000FF19E0E700245D1C07D0144F7D6639663F
:10395000FFE7FFE7FFE7FFE73C6F95B29EB26543E5
:103960006643401BB141150C1E0C6543664336048B
:103970002F0C3E432D04401BB141994204D202005A
:103980000B0020000021F0BD01D19042F7D3801A36
:10399000994101349942F2D3F6E70000000000D0CB
:1039A000FFFFFFFF48404140484018B4134B5B689D
:1039B000019308BD18B4114B1B68019308BD9446D0
:1039C0000F4A926F920805D2624618B40B4BDB681F
:1039D000019308BD0A4AF0B5146E556E576F166F05
:1039E0006246FFF7F2FF064A146655665767166788
:1039F000F0BD18B4014B9B68019308BDC80B0020B3
:103A0000000000D0FFB550404240504059404B406C
:103A1000594000E0FFB5154F4C00640D03D0BC4287
:103A200004D10C0314D80020090D09055C00640DB5
:103A300003D0BC4204D11C030AD800221B0D1B0575
:103A400001264B4009D44B4003D58B4200D1824222
:103A5000FFBD9942FCD19042FFBD0B43DB180343ED
:103A60001343F5D0C9434918FFBD0000FF0700000C
:103A700000B5FFF7CFFF804100BDC04600B5FFF79E
:103A8000C9FF01D9002000BD012000BD00B5FFF72E
:103A9000B9FF01D9002000BD012000BD00B5FFF72E
:103AA000B1FF804100BD012040054A00121804D832
:103AB0005A00121801D800207047012070470020DA
:103AC000704700000021002805D17047C117484009
:103AD000401AFAD0C90713B5064B1B6898470CBCAF
:103AE000441CA2401005120B0349091B0905194388
:103AF000114310BDBC0D00201F04000010B54C0088
:103B0000620D8023D218DB00D21A5B057E2A10DDFD
:103B10009E3A13DACC170903490819435242D1409F
:103B2000640001341532202A05DAD040084360438E
:103B300010BD002010BD0846604310BDC80FC0185E
:103B4000013810BD18B4024B5B6A019308BD000038
:103B5000C80B002010B50148FEF78AF9A0670010D5
:103B6000132370B51D78012D11D035DD1C48FFF7EA
:103B70008FFC1C4C01008022200000F00DF9022D6A
:103B800027D01948FFF77CFC184B186070BD184B04
:103B9000144C23606360A360E36023616361A361ED
:103BA000E36123626362A362E36223636363A363EB
:103BB000E36323646364A364E36423656365A365CB
:103BC000E36523666366A366E36623676367A367AB
:103BD000E367084BA364D4E7024C064BA364D0E729
:103BE00053440000C80B00204C330000BC0D0020E3
:103BF000553B0010F93B001007B5604601880A0AE2
:103C00000230DF2AFAD1C9B2820804D30288408880
:103C10000004104300E00068014A5050039007BDC3
:103C2000C80B002051434343C9188C46110C83B282
:103C30004B4310B4040C614392B280B250436243D0
:103C40001C041B0C001910BC59411304120CC018A1
:103C500051416144704700004840414048400E4B8C
:103C60005B6818470C4B1B6818470C4A936F9B08FE
:103C700002D2094BDB681847F0B5146E556E576FCA
:103C8000166FFFF7F6FF054A146655665767166705
:103C9000F0BD014B9B681847C00D0020000000D00C
:103CA000C10FC90700D54042002817D0F44603B41D
:103CB0000B4B1B68984706BC81409E3840428031C0
:103CC00007D20B0607D04900490AC0051043084334
:103CD00060470130F8E7490A8902F5E770470000BC
:103CE000BC0D0020014B5B6A18470000C00D00208E
:103CF00010B50148FEF7BCF8AC680010132310B5EE
:103D000010481C78FFF7C4FB0100012C0AD003DD2A
:103D100080220D4800F040F80C48FFF7B1FB0C4B37
:103D2000186010BD084C5422200000F035F8230024
:103D3000084A80332168002900D122600434A3425C
:103D4000F8D1E9E753460000C00D00204C330000D5
:103D5000BC0D0020F13C001010B5040000F0F8FF8D
:103D6000002804D0034B04199C4200D810BD02481F
:103D7000FEF77EF800000420B86700100148042117
:103D8000014B184730020020A1340010014B1B6882
:103D90001847000030020020014B5B681847000004
:103DA00030020020030010B5080011001B6898477E
:103DB00010BDC046F0B546464F46D646C0B5437D19
:103DC00080460E001700002B46D0002A3FDD4B1E18
:103DD0009946244B0125002400209A460DE04B46CD
:103DE0001B5D0D3B5A425341325DDBB20A2A0BD0B8
:103DF0002B00013401359F421ADD002CEFD14346E0
:103E0000325D1B7D0A2AF3D1002BF1D1A04204DAE6
:103E10004346211A1B6830189847434650461B6892
:103E200002219847013428002B0001359F42E4DC31
:103E3000874204DD4346391A1B6830189847F61943
:103E4000013E33780D3B5A42534142461375E0BC64
:103E5000BA46B146A846F0BD036811003000984745
:103E6000F5E7C0463C680010F0B5C6460C0009688E
:103E7000060000B5802906D04B1C2360641826710B
:103E800080BCB846F0BD0F4B1D68002D16D0231D19
:103E900098460D4F02E02D69002D0FD02B68002BA6
:103EA000F9D03B68002B01D0AB42F4D12800414649
:103EB0002268FFF77FFF2D69002DEFD1012300213C
:103EC000DBE7C0469C0D0020A00D0020F0B5DE46CB
:103ED00057464E464546E0B585B017001C00060023
:103EE0000D00FDF7A3F90023304A12184B41002BB7
:103EF00058DB2F4908008A4601F086FB01906B1CB5
:103F000003D1300001F008FA0500002C25D1294B1F
:103F10009846294B1C68002C15D0002F20D1274F24
:103F200002E02469002C0ED02368002BF9D03B68F6
:103F3000002B01D0A342F4D120002A003100C04759
:103F40002469002CF0D1019B002B27D105B0F0BCD7
:103F5000BB46B246A946A046F0BD194B9846D8E7E5
:103F6000164B994602ABDF1D0A239B4602E02469EB
:103F7000002CE8D02368002BF9D04B461B68002B9F
:103F800001D0A342F3D12A0031002000C0475B4694
:103F90000122390020003B70C047E8E7504601F09D
:103FA0001BFBD3E70122074B5242A2E740420F001E
:103FB000A80A0020B53D00109C0D0020A00D002097
:103FC000A53D0010FFFFFF7FF0B5CE46474680B508
:103FD00083B06B460600DD1D2870FDF727F900232E
:103FE0001A4A12184B41002B2BDB1949080088464E
:103FF00001F00AFB174B81461C68002C14D0164FA9
:1040000002E02469002C0FD02368002BF9D03B6814
:10401000002B01D0A342F4D1200001222900FFF798
:10402000C9FE2469002CEFD14B46002B05D130008E
:1040300003B0C0BCB946B046F0BD404601F0CCFA72
:10404000F5E70122054B5242CFE7C04640420F0040
:10405000A80A00209C0D0020A00D0020FFFFFF7F7C
:1040600070B5040001F058F9002301000500012299
:104070002000FFF72BFF084B1C68002C06D063685C
:10408000002B05D098472469002CF8D1280070BD7A
:104090002469002CF3D1F9E79C0D00200A4A13682B
:1040A000002B05D10CE01A001B691032002B07D041
:1040B0009842F8D1002902D1036913600161704769
:1040C0000029FCD01060FAE79C0D0020F0B5CE4628
:1040D000474680B5A5B004000D00FDF7A7F8002302
:1040E0002A4A12184B41002B49DB294E300001F0BF
:1040F0008BFA00230700039322002B00254803A915
:10410000FFF78EF9039B8046002B14D1224B1C68CD
:10411000002C06D06368002B0BD098472469002C34
:10412000F8D1002F27D1404625B0C0BCB946B046D3
:10413000F0BD2469ECE7184B1D689946002D22D08C
:10414000164C02E02D69002D11D02B68002BF9D000
:104150002368002B01D09D42F4D1039B28001A0054
:1041600004A90193FFF726FE2D69002DEDD14B46E2
:1041700003951C68CCE7300001F02EFAD3E701224A
:10418000074B5242B1E70395CBE7C04640420F00D0
:10419000A80A0020693E00109C0D0020A00D002000
:1041A000FFFFFF7F0FB400B583B004A901C90191DF
:1041B000FFF78CFF03B008BC04B0184710B500F03F
:1041C000C5F8012010BDC046F0B50D1E15DD0E4B23
:1041D0000D271A680D4B4519D31859424B410C490C
:1041E0005B005E5E20210478A64207D093691942E5
:1041F000FCD101301460A842F5D1F0BD9369194299
:10420000FCD11760F2E7C046D80E00200080FCBF4A
:10421000D40E002030B504000D1E26DD0020102134
:104220001B4B013C1A689369194219D101309369FB
:104230001942FCD1136823548542F4D1154B1B68F5
:10424000002B0CD050239363516B183B34320B403E
:104250001100802252010A431360002815D030BD9E
:104260000C4B1B68002BEDD1F7E70A4B1B68002BAA
:104270000BD050223821064B1B689A635A6B34339B
:104280001140802252011343196003204042E6E7A7
:10429000D80E00202C0D0020064B10B51B68002BFB
:1042A00006D00021044A12689163044A10689847B6
:1042B00010BDC0462C0D0020D80E0020300D00206F
:1042C0001D4BF0B51A68C64698461C4B0E00D31815
:1042D00059424B411A4F14331C00050000B53B688E
:1042E000002807D0002B11D0164B3D601E6080BC0B
:1042F000B846F0BD002BF7D0906300212000FCF7FA
:1043000017FA20001049FCF757FAEDE720000E4994
:10431000FCF728FA01212000FCF70AFA4346502254
:1043200038211B689A635A6B343311408022520142
:1043300013431960D8E7C046D80E00200080FCBFA8
:104340002C0D0020300D0020994200100C4B10B5B0
:104350001B780C4B0C4C1B780C4B0221002023606B
:10436000FCF78AF902210120FCF786F9E121206897
:104370004902FDF747FA01210548FFF78FFE10BDFE
:10438000D06A0010D46A0010D80E0020004003400C
:1043900040020020F0B557468246484B45465344FC
:1043A0005A4253418022DE464E46920294465B4278
:1043B000E0B51B0C424A1B0463441360414A0D00E4
:1043C000414985B0136018008A689043FBD181464B
:1043D0000620FDF743FC53465A6802231A40019217
:1043E0005246043211000292C0228046802092017F
:1043F00011430B600391EF0D02216E02AB0DAA0277
:10440000400005E0904507D392197B4181424FD08F
:104410000C000231002BF5D02B00802627024546E8
:104420003F1BA04676001C0003E04346FF1A012E06
:1044300040D039002800B346013EFFF77BF88442A4
:10444000F3D2444659463302A8469946614353463F
:104450004A461C611B6850465340FF22120213401B
:1044600080225201024313608023029C01989B0129
:104470001C43206002255046039E40683560564626
:104480000727366828407740CF263E4016602060D8
:104490005046243018430323036040462560FFF74D
:1044A00049F805B0F0BCBB46B246A946A046F0BDEF
:1044B0000C00B1E744461900A846C8E70040FCBF1D
:1044C00000E0004000F0004000C00040F8B5DE46CB
:1044D00057464E4645468346E0B505200C00FDF79D
:1044E000BDFB0600600821008019FFF723F8430098
:1044F00098468044070005214046FFF71BF83B1A09
:104500009A46204B8146700080199C4234D81E493F
:10451000FFF710F8451C5B461C680023E366226821
:104520000433534006221A4080235B0123431A6060
:104530005346E3614B462362434601204F2B03D988
:1045400050214046FEF7F6FFA0232200E0508023D2
:10455000E06F7C3245402D045B0113432D0C1D6040
:10456000012339003000E366FEF7E4FFF0BCBB46F0
:10457000B246A946A046F8BD0449FEF7DBFF451C3C
:10458000C9E7C0463F420F008096980040787D0101
:10459000104A70B5821A53425A41072352429A4335
:1045A0000D4B10321A600D4B0D4C1A601500A368AC
:1045B0009D432B1EFAD166240268FF340571D5662F
:1045C0001460633C8833FF3CD5639563D450FFF798
:1045D0007DFF70BD5802002000E0004000F0004068
:1045E00000C00040F0B557464E464546DE46904670
:1045F0000022E0B583B01E000CAB1B7884469A46BF
:104600000368DA6601325960DA66002E4FDD5146E2
:104610004A40520201928022914632008025771E44
:104620000020464610219046AD000024002804D109
:1046300062461479621E9441A40200229346B84255
:104640001AD0325C22435C4622431A615A6B1142F3
:10465000FCD04A469C58002C11D1B84222D00130DF
:104660008045E2D1634652461A7103B0F0BCBB46A6
:10467000B246A946A046F0BD019A9346E1E75A6DBD
:10468000012293465A6B2A42FCD01A6E5A46002ADF
:10469000E5D0002C03D0E30701D42307E2D40220A5
:1046A0004042DFE75246002AD9D1D346EAE700204C
:1046B000D8E7C046F0B54E464546DE465746E0B51B
:1046C0008FB01E00019318AB20CB0B9119780723F4
:1046D0000C91297806950B405C1EA341C908591816
:1046E0006B780791002B00D181E000297FD0013A3F
:1046F0000D920122F1009246089106320021934664
:1047000004000A910A98069A84460C99D2788A1A6B
:1047100053430199079A634453430A0042430B9859
:1047200005338446624402928C460A00099353463C
:1047300000210D989B1A6044049003910593099AF7
:10474000069B9446039A63449B5C019D984608230C
:104750009C46029B049F99464D442B004546984633
:104760000AE06346013BDBB29C46019B6D0899461B
:1047700063464F44002B27D053462B42F1D0059B74
:104780009946019BB944002BEBD0029923784A4605
:104790008B4215D9607882420CD2D00843435846E8
:1047A0005646104086403000E6685B18F65C3043A1
:1047B000E668F054BA4203D0237801328B42E9D83C
:1047C00001314145E2D1CCE70899049A8C46039B1C
:1047D00062440492079A013303939A42AFD10A9A32
:1047E000069B01325B78D2B20A929A428AD30FB00A
:1047F000F0BCBB46B246A946A046F0BDF0B5DE46C9
:1048000057464E464546E0B587B002924A7F8446F9
:10481000087F12020243012A00D09FE00D00CC7FE6
:104820008A7F1E35A87824021443EA7800040443E2
:104830001206224300D091E0CC7B8A7B087C2402C4
:1048400014434A7C00040443120622438A18957BD1
:10485000107C2D040543D07B0002054308D0957CD5
:10486000107DD27C2D041202054315436A42554146
:10487000CA7C887C0C7D12020243487D24042243BA
:104880000006104307220240541EA241C408121918
:10489000140003920322224203D0944322000432E4
:1048A0000392CC7D8E7D0A7E240226434C7E120428
:1048B000CF7A3243240622438C7A0E7B3F02274371
:1048C0004C7B3604374324063C430919002A4CDD4F
:1048D000013A9146012252420592049200283DD0AD
:1048E0004B449B465B46DB08072201935B4601264F
:1048F00013409E4073B29A46029A002303E00133AC
:104900000132834220D00726DC080C5D9E433441EF
:1049100001263440AC42F2D1644624789442EED968
:10492000664676785E45EAD9019E01337443664651
:10493000F668A418365D2700544626436446E468AA
:104940000132E6558342DED1039B9846059B4144E4
:104950009846049BC144C3449945C3D107B0F0BCF9
:10496000BB46B246A946A046F0BD54420494002A74
:10497000F4D00022914601320592AFE7F0B5DE4651
:104980004E4645465746E0B58BB01F00149B0600C7
:104990009B46D3B2737015009846D3085A46C8B2E6
:1049A000DBB230705843B3703061F7707260013021
:1049B0008946FFF7D1F9F060002800D174E03B4B45
:1049C00003AC03934346013B2371D32363718023DC
:1049D000DB01E3808D232372337A0130F060002BFA
:1049E00048D114236372324B6D006381DA23237341
:1049F000A94551DD02236373813BE3815933FF33C2
:104A00002374183363742B4B02AD63822A4B0893D3
:104A10000023237625336B449A46284B9846284B2F
:104A200099460BE0431C03D141462648FFF7BAFBE9
:104A30000134544516D07368F7789B4600232278DA
:104A40002B706A70390000932A0002335846FFF732
:104A5000C9FD831CE6D1414648460134FFF7A2FB5D
:104A60005445E8D101200BB0F0BCBB46B246A94684
:104A7000A046F0BD102363720D4B6D006381DA23F5
:104A80002373A9450CDCC83B6373913BE381593325
:104A9000FF332374B73BB5E712236373913BACE755
:104AA00002236373813BF1E73061DCE7AED580A878
:104AB000A1C8FFFFDB300000A4A6AF208068001073
:104AC00090680010B0680010030010B50021C068A5
:104AD0001A69FFF75BF910BDF8B557464E464546D3
:104AE000DE460C00E0B5060017001D0099421FDDF0
:104AF0000A9A072001273378AB4213D97178914283
:104B00000CD9D1084B4301003C0011408C402100DE
:104B1000F4685B19E45C2143F468E1540A9B0132B8
:104B20009342E8DAF0BCBB46B246A946A046F8BDBF
:104B3000994236D00A9B981AFFF7B2F88046281B94
:104B4000FFF7AEF8011C4046FFF78FF882463800A9
:104B5000FFF7A6F86B1C98460723814600279B4663
:104B60003578AC4218D23800FFF79AF85146FFF773
:104B700090F84946FFF776F8FFF7B4F87378984253
:104B80000AD25A46C3081040012282405D43F368AE
:104B90002D19595D0A435A55013401374445DFD177
:104BA000C0E70A9B9A42A4DD1A00A2E7F0B54F467F
:104BB0004646D646C0B582B00B9E984633788246AC
:104BC00091460F000A9D002B17D0EA7801369A42D1
:104BD0000AD82A799A4207D301934A4643463900B4
:104BE00050460095FFF766FDAB786C78E4184346B5
:104BF0005C433378E719002BE7D102B0E0BCBA463A
:104C0000B146A846F0BDC046F0B54E4645465746AB
:104C1000DE46E0B583B00C9D81462C7892469846DE
:104C20000E00002C16D05F00104B47449B467F00BF
:104C30002300203B01355E2B13D85B4631000194E5
:104C40000093524643464846FFF734FD2C78F61948
:104C5000002CEDD103B0F0BCBB46B246A946A0463D
:104C6000F0BD2C78F619002CE2D1F3E7D0680010E3
:104C700010B5352A03DD00230022FFF7BFFD10BD6C
:104C8000F0B5CE464746212380B5027887B004AC04
:104C9000511E2370A170002322216370E1702371E3
:104CA00083780600013B6371402A03D1202363709F
:104CB0003F33A3701627224B6F449846214B03AD18
:104CC000994608E0431C03D141461F48FFF76AFAA2
:104CD0000134A74213D0002322782B706A70F17838
:104CE00000932A0002337068FFF77CFC831CE9D133
:104CF000414648460134FFF755FAA742EBD140221E
:104D00000024F368013B1A703369F2680133F178CB
:104D10007068013A0094FFF765FC831C0AD0431CBD
:104D200003D10A490848FFF73DFA07B0C0BCB946AD
:104D3000B046F0BD05490348FFF734FAF5E7C04631
:104D40008068001090680010B0680010C068001003
:104D500010B5034B0100186800F00EF810BDC046F6
:104D60006802002010B5034B0100186800F050FBEA
:104D700010BDC04668020020F0B54E464546DE46EE
:104D80005746E0B50D000B35060083B0162D22D82E
:104D9000102900D9B2E000F0A9FA1025182302204A
:104DA000CC4FFB181A005C68083A944200D1B5E079
:104DB000032362689A431300E268A168CA609160A5
:104DC0000122E318596830000A435A6000F090FA53
:104DD0002000083095E007239D4300D58EE0A942CE
:104DE00000D98BE000F082FAFC235B009D4200D2E8
:104DF000A1E1680A00D18BE0042800D974E13823CE
:104E00009846A80980443930C100B24F79184C68DF
:104E10000839A1420ED003239C4604E0002ACBDAD5
:104E2000E468A14206D06246636893435A1B0F2A86
:104E3000F4DD40463A003C690832944200D178E003
:104E400003236168994389460B00491B0F2900DD44
:104E500075E17A613A610029B2DA802292009145C7
:104E600000D310E15909DA0801238B40D200796898
:104E7000D2190B4391687B60E260A1609460CC60C2
:104E8000012182109140994259D80B4205D1032249
:104E90009043490004300B42FBD003239846C300E3
:104EA0009946B944CC4682466346DC68A44507D19E
:104EB00026E1002A00DB2FE1E468A44500D11FE1D0
:104EC0004246636893435A1B0F2AF2DD0120804655
:104ED000611905436560A068E5680837C560A8608A
:104EE00040461043F960B9604860CF6030008F6081
:104EF000E25000F0FDF92000083002E00C23002011
:104F0000336003B0F0BCBB46B246A946A046F0BD34
:104F100080213F2340209846890076E7DC680230F4
:104F2000A34200D044E73A003C690832944200D0E2
:104F300086E701217B68821091409942A5D903231D
:104F4000BC6862689A439146954203D8531B0F2B65
:104F500000DD8AE023004B445F4A01935F4B934698
:104F60009A4612681B68EB18013200D136E15C4AA0
:104F7000944663441B0B1B0300933000009900F020
:104F8000B9F903008046013300D1F3E0019B83426D
:104F900000D9EDE05246009852680300944651460D
:104FA00063444B6001991A00414500D14BE15B46D7
:104FB0001B68013300D150E1434601995B1A9A18EE
:104FC00053465A600723424641461A40019219420D
:104FD00000D10DE108239846881A424B009980447D
:104FE00041449B1A5B1A1B051B0D009130001900F0
:104FF0009B4600F07FF9431C00D14AE14346C01AAA
:1050000003005B440093534652465B6801215B44B6
:10501000536042464046BA60009A0A434260BC422E
:1050200000D11EE14A460F2A00D81CE107200C3AA5
:10503000824360680140052011436160A118486007
:1050400088600F2A00D92FE14246444652685146F3
:10505000C96A994201D25146CB625146096B9942C5
:1050600000D389E051460B6386E0012229001343F7
:105070001143651961603000BD606B6000F038F964
:10508000200008303DE75A0A042A6BD9142A00D9B7
:10509000BEE011005C325B31D20008235B429C46CB
:1050A000BA18944463469A6803239846944500D1FD
:1050B00097E0434651689943494502D9926894451F
:1050C000F7D1D3689C467B686146A260E1608C6042
:1050D000D460D5E6A006002098060020E40C00204D
:1050E0000F10000008100000142852D9542800D9CD
:1050F00096E06E239846280B80446F30C10084E60A
:1051000008239B46073BDC449B46DA444346524611
:10511000134200D0C8E64CE00122E3185968300081
:105120000A435A60E368A268D3609A6000F0E0F82E
:1051300020000830E5E62B00E808083330E60123BC
:1051400060191D43656078613861C26082601A0031
:105150004B460A4342603000E15000F0C9F820009D
:105160000830CEE69A09110039323831D20094E77E
:10517000BC4260D0BC68626803239A43531B9542CB
:1051800002D80F2B00DD70E7300000F0B1F80020EE
:10519000B7E65B23984680445C30C10035E60823BF
:1051A0005B429C46E1444B469B6801384B4500D02E
:1051B00097E043460342F2D17B688B437B60490012
:1051C000994200D9BBE6002904D1B8E604229446EE
:1051D0004900E2440B42F9D0504660E61033009398
:1051E000CBE68910023B8B4079680B437B606BE711
:1051F000009B300043445B421B051B0D19009B467E
:1052000000F078F8431C00D0F8E600239B46FAE64D
:10521000542A2AD81A0B11006F326E31D2003CE7A3
:10522000AA235B0098422AD8DD3B9846E80B8044CD
:105230007830C100E9E553465B68009A9C465346C6
:1052400062445A60B3E6090500D0B0E60200BC68CB
:105250004A4401310A436260F9E65B4642461A60FD
:10526000B0E64446F3E641608EE7AA2149008A424F
:1052700024D8DA0B110078327731D2000DE71A4BBF
:10528000984224D87C239846A80C80447D30C100E5
:10529000BBE5009A019B94464246083B63449B1A37
:1052A000009300239B46AEE621003000083100F059
:1052B000AFF85346BC685B686268C8E60A498A4230
:1052C0000BD89A0C11007D327C31D200E5E6FE212C
:1052D0007E237F209846890097E5FE227E2192005A
:1052E000DBE67B686BE7C046540500007047C046AC
:1052F0007047C046002370B5064D040008002B60BF
:10530000FCF798FD431C00D070BD2B68002BFBD030
:105310002360F9E7180D002010B583070AD00300B9
:10532000032102E001330B4205D01A78002AF9D19B
:10533000181A10BD030019680C4A0D4C8A188A43CC
:1053400022420FD15968094A04338A188A432242FB
:1053500008D15968054A04338A188A432242F1D099
:1053600000E001331A78002AFBD1E1E7FFFEFEFEE0
:1053700080808080F8B50C000500FFF7B7FF204F54
:10538000BB685E6803239E431E4B341B9C466444EB
:10539000240B013C113324039C4207DB002128002D
:1053A000FFF7A8FFBB689B19984204D02800FFF7BD
:1053B0009FFF0020F8BD28006142FFF79BFF431CC0
:1053C0000DD00122BB68361B16435E600E4B2800D1
:1053D0001A68141B1C60FFF78BFF0120EAE700210D
:1053E0002800FFF787FFBA68831A0F2BDEDD074915
:1053F0000968401A0449086001210B435360D5E74E
:10540000A0060020EF0F0000E80C00209806002006
:10541000F0B5C64605000C0000B500294FD0FFF7D7
:1054200065FF210008394C68012622000320B243A1
:105430008F187B688343624898468368BB426AD072
:1054400043467B6026421ED108239C460C68844458
:10545000091B12198C6864454FD0CB68E3609C60CF
:105460004346FC186468344211D1BB68554C424431
:10547000A34200D17EE0FC68DC60A36001231343FB
:105480004B608A5006E0FC1864683442EDD0164345
:105490004E603A6080239B009A4213D25409D3088D
:1054A0000122A2404468DB0022434260181883684E
:1054B000C8608B608160D9602800FFF719FF80BC4D
:1054C000B846F0BD530A042B3ED89409260039345F
:1054D0003836E40004192368083C03279C4242D074
:1054E0005868B843904202D99B689C42F8D1DC6866
:1054F000CC608B60A160D960DEE74346F818406855
:10550000304257D1FB68B86842441643C360986084
:105510004E608A50D0E713004344264206D10A6801
:10552000891A8C689B18CA68E260946001221A4349
:105530004A60254A816012689A42BDD8234B2800F0
:105540001968FFF717FFB7E7142B07D9542B1AD8A0
:10555000140B26006F346E36E400BBE71E005C338C
:105560005B36DC00B6E70122B610B2404668324333
:105570004260BDE7D9609960CB608B600123134323
:105580004B608A5098E7AA246400A34205D8D40B44
:10559000260078347736E4009CE70D4CA34205D80A
:1055A000940C26007D347C36E40093E7FE247E26AE
:1055B000A4008FE7330013434B603A607CE7C0469A
:1055C000A0060020A80600209C060020E40C002075
:1055D00054050000F8B5C04601B40248844601BC39
:1055E000604700BF5D01002001B40248844601BC51
:1055F000604700BF8501002001B40248844601BC19
:10560000604700BF8501002001B40248844601BC08
:08561000604700BFC10000204B
:105618005353443133303600444953504C415900B8
:105628004452495645520000414E494D4154494F54
:105638004E21000018560010205600102856001061
:10564800080800207E0000000000000000005F0045
:10565800000000000000030003000000000A1F0A09
:105668001F0A000000242A2A7F2A2A120000472540
:1056780017087452710036494949414138000300FE
:105688000000000000003E410000000000413E0014
:10569800000000000004150E150400000008083E74
:1056A800080800000000C00000000000000808080A
:1056B8000808000000400000000000000040201022
:1056C8000804020100003E61514945433E01017E44
:1056D80000000000000071494949494946414949CB
:1056E8004949493600000F10101010107F004F492B
:1056F8004949494931003E4949494949300101016F
:105708000101017E000036494949494936000649E8
:10571800494949493E140000000000000040340097
:1057280000000000000814220000000000141414F7
:1057380014140000002214080000000000000601F4
:105748000159090906003E415D555D515E007E0123
:10575800090909097E007F414949494936003E4106
:105768004141414122007F41414141413E003E4982
:105778004949494941007E090909090901003E4191
:105788004949494979007F08080808087F007F00CF
:105798000000000000003840404141413F007F08C0
:1057A80008080C0A71003F404040404040007E011C
:1057B800017E01017E007E01013E40403F003E41E6
:1057C800414141413E007E090909090906003E415F
:1057D800417151517E007E0131494949460046498F
:1057E80049494949310101017F01010100003F4058
:1057F800404040403F000F10204020100F003F4025
:10580800403F40403F00631408080814630007083D
:1058180008780808070071494949494947007F4104
:1058280000000000000000000000000000417F00B0
:1058380000000000000000000000000000404040A0
:1058480040404040000000000000000000007E01D1
:10585800090909097E007F414949494936003E4105
:105868004141414122007F41414141413E003E4981
:105878004949494941007E090909090901003E4190
:105888004949494979007F08080808087F007F00CE
:105898000000000000003840404141413F007F08BF
:1058A80008080C0A71003F404040404040007E011B
:1058B800017E01017E007E01013E40403F003E41E5
:1058C800414141413E007E090909090906003E415E
:1058D800417151517E007E0131494949460046498E
:1058E80049494949310101017F01010100003F4057
:1058F800404040403F000F10204020100F003F4024
:10590800403F40403F00631408080814630007083C
:105918000878080807007149494949494708364144
:1059280000000000000000000000000000413608F0
:105938000000000000020101020201000000000056
:105948000000000000000000080601207E000000A2
:105958000000007F517F0000000F090F090F003E73
:105968006B416B416B7FD194C57F00774D77597739
:10597800007F4955496F540F090F0000007FC1BED1
:10598800E30000E3BEC17F00003E2A7741772A1C6E
:105998001477417714E0B0D07000001C1414141C64
:1059A80000705070000000784C77190F007F415D3F
:1059B800417F007F417F0000007F4555517F007F78
:1059C8005555417F001F1177417F007F5155457F15
:1059D800007F4155457F00077D45790F007F495578
:1059E800497F007F5155417F003E2A3E000000E07C
:1059F800BEDA7E00001C366B5D77003E2A2A2A2A12
:105A08003E775D6B361C00077D55711F007F415D39
:105A180055517F7F4175417F007F4155417F007F10
:105A2800415D5577007F415D633E007F4155557F5D
:105A3800007F4175151F007F415D457F007F4177DD
:105A4800417F007F417F00000078485F417F007FF1
:105A58004177497F007F415F5070007F413B3B4168
:105A68007F7F413B76417F7F415D417F007F41756C
:105A7800111F007F411D417F007F416D516F007FE5
:105A88005155457F00077D417D07007F415F417F7C
:105A9800003F615F613F007F416E6E417F7F4977C4
:105AA800497F001F7147711F007B4D55596F00FFDB
:105AB80080BEE300000F19774C7800E3BE80FF003A
:105AC800000E0B0D0B0E00E0A0A0A0A0E0070D0B30
